:020000040000FA
:10C0000098210020F5C0000007C10000C7C1000052
:10C010000000000000000000000000000000000020
:10C020000000000000000000000000000BC1000044
:10C0300000000000000000000DC100000FC1000062
:10C0400011C1000011C1000011C1000011C10000A8
:10C05000CDC100000000000011C1000011C10000AE
:10C0600011C1000011C1000011C1000011C1000088
:10C0700011C1000011C1000011C1000011C1000078
:10C0800011C1000011C1000011C1000011C1000068
:10C0900011C1000011C1000001C2000011C1000067
:10C0A00011C1000011C100000000000000000000EC
:10C0B0000000000000000000000000000000000080
:10C0C0000348854600F03EF80048004769C5000077
:10C0D00098210020401E00BF00BF00BF00BF00BF6E
:10C0E00000BF00BF00BF00BF00BF00BF00BFF1D155
:10C0F00070470000074802680F210A4302600648A3
:10C10000804706480047FEE7FEE7FEE7FEE7FEE75A
:10C11000FEE700002405004005C20000C1C0000089
:10C1200003460B439B0703D009E008C9121F08C050
:10C13000042AFAD203E00B78491C0370401C521EFB
:10C14000F9D27047064C0125064E05E02046E3680B
:10C1500007C82B4398471034B442F7D3FFF7B4FF16
:10C160004CD300005CD3000070B58D180478401CDF
:10C17000A207920F01D10278401C231106D1037847
:10C18000401C03E00678401C0E70491C521EF9D179
:10C19000002B14D002780C26401C8A1A34400C2C38
:10C1A00003D0A401121B9B1C07E00478401C24024E
:10C1B000F8E71478521C0C70491C5B1EF9D5A94293
:10C1C000D4D3002070BD00BFFEE7000010B50A48C0
:10C1D000806801280ED1094840680421084209D02E
:10C1E00000200549886000F021FE0446204600F04A
:10C1F000EBFF00BF10BD00000041004000430040C5
:10C200007047000010B500F07DF9002805D0074800
:10C2100007494860C8130749886100F059F90028A8
:10C2200002D001200449886010BD0000DFFF07C074
:10C2300000050040006C00400006004030B4744629
:10C24000641E2578641CAB4204D3635D5B00E31875
:10C2500030BC18471D46F8E702E008C8121F08C1A5
:10C26000002AFAD170477047002001E001C1121F77
:10C27000002AFBD1704710B500231A46102118463A
:10C28000C2DF0446002C01D000F020F90123022275
:10C2900019460020D3DF0446002C01D000F016F927
:10C2A0000020C4DF0446002C01D000F00FF910BDBF
:10C2B0000A2000F00FFC00BFFEE7000070B59AB046
:10C2C00004200F2101910290039104900820002383
:10C2D000042202210090104600F00CFC0690544805
:10C2E0000790002008220B230390019302920490F0
:10C2F000042006230246014600903F2000F0FAFB8E
:10C30000089000200D2201230390019302920490D3
:10C310000320002306220D210090184600F0EAFBBE
:10C3200009900420002101910290039104900A20B9
:10C330000B46022211460090002000F0DBFB0A9021
:10C3400000200190029003900490034616220146BB
:10C35000009000F0CFFB0B900020082240230390B8
:10C3600001930292049007200023012219460090B5
:10C37000184600F0BFFB0C901F2000040D90042015
:10C3800000210122019102920B4600920391049038
:10C39000104600F0AFFBC4B2002001900290039061
:10C3A000049001200023024619460090184600F030
:10C3B000A1FBC5B204200122029004900023039542
:10C3C0000192009002461946204600F093FB0E9021
:10C3D00004200F210822002304900193029203916C
:10C3E00000900246084600F085FB0F900020019067
:10C3F00002900390049008204723024600210090F9
:10C40000182000F077FB10900020119012901390EC
:10C4100014901590169017901890012040051990CF
:10C4200006A800F095FB064630461AB070BD000025
:10C4300022102000FFB581B006460F461C46052E8F
:10C4400002D0802E39D116E03846039900F06CFBFB
:10C450001C4A08210020C8DF0546002D01D000F04D
:10C4600035F8082000F036FB142000F00BFB082004
:10C4700000F020FB22E060784F281CD1082000F05B
:10C4800029FB642000F0FEFA082000F013FBE0789E
:10C49000012804D0022806D0032809D104E0002096
:10C4A0000949086005E004E00E2000F013FB00E0FD
:10C4B00000BF00BF00BF00BF00BF00BF00BF05B08E
:10C4C000F0BD0000081900200009002000BFFEE7B1
:10C4D0000B48008CC0B2012810D10948808C00079D
:10C4E000000F0BD10648806AF0210840402805D192
:10C4F0000348C06A084201D1012070470020FCE7D0
:10C50000C00F00F01748008CC0B2012827D1154891
:10C51000808C0007000F22D11248806AF021084267
:10C5200005D11048C06A084201D1012070470D486A
:10C53000806AF0210840102805D10A48C06A0842E4
:10C5400001D10120F2E70748806AF0210840302835
:10C5500005D10448C06A084201D10120E6E7002065
:10C56000E4E70000C00F00F086B008200F21009122
:10C5700008E003210522120707231B02D2188300BB
:10C58000D150401C00998842F3D900BFF6490220DF
:10C5900010DF0546002D01D0FFF798FF032116207C
:10C5A00028DF0546002D01D0FFF790FF162023DF7E
:10C5B0000546002D01D0FFF789FFFFF75CFE002044
:10C5C00000F03AFB642000F05DFA642000F05AFAB3
:10C5D0004EE20120E5490860E5490860002100912C
:10C5E000009989000522120707231B02D218830035
:10C5F000D15000BF00BFDF490969C1400140DB489D
:10C600000160DD4A02A901A8C1DF0546002D0DD158
:10C610006846007A802807D1D74B00221146684629
:10C62000007AFFF707FF00E000BF00BF0020CF49FE
:10C63000086018E20120CD4908600820CF49087041
:10C64000CF48002101604160CE4801604160102068
:10C65000CB49087008204870C848007800F01CFBDF
:10C660000590642000F00EFAC54800210160416089
:10C67000C44801604160FFF721FE0746002F03D147
:10C68000FF200130BB4988600820BC490870BC48C5
:10C69000002101604160BB48016041608A20B849C7
:10C6A0000870B648007800F0F7FA0590642000F0B2
:10C6B000E9F90598002803D1FF200130AD498860D1
:10C6C0000820AE490870AE48002101604160AD48C5
:10C6D000016041608C20AA490870A848007800F0E9
:10C6E000DBFA0490642000F0CDF90498002803D10F
:10C6F000FF2001309F498860A1480021016041600E
:10C70000A04801604160082000F0F0FA9E490860EE
:10C7100008460168082000F007FA994800210160E6
:10C720004160984801604160002000F0DFFA9749BD
:10C7300008609348002101604160924801604160B7
:10C74000012000F0D3FA914948608D480021016032
:10C7500041608C4801604160022000F0C7FA8B49BB
:10C76000886087480021016041608648016041601F
:10C77000032000F0BBFA8549C860814800210160B0
:10C780004160804801604160042000F0AFFA7F49B9
:10C7900008617B480021016041607A480160416086
:10C7A000052000F0A3FA794948617548002101602D
:10C7B0004160744801604160062000F097FA7349B7
:10C7C00088616F480021016041606E4801604160EE
:10C7D000072000F08BFA6D49C8616B48006800289B
:10C7E00008D10846002805D108464068002801D134
:10C7F000012000E00020039063480068002803D176
:10C80000FF2001305B49886060484068002803D100
:10C81000FF20013057498860002F0AD10598002871
:10C8200007D10498002804D10398002801D100BF43
:10C83000FEE700BF00BF00BF00BF00BF00BF00BFDA
:10C84000534A08210020C8DF0546002D01D0FFF71C
:10C850003DFE00BF484A02A901A8C1DF0546002DE0
:10C860007ED16846007A032802D0052879D100E0FD
:10C8700000BF00240420012802D0042872D191E0D6
:10C88000012600BF3C4A02A901A8C1DF3F20304178
:10C89000C007C00F00900098002859D06846007A61
:10C8A000052855D13300FFF7C9FC085205101B2697
:10C8B000313C47523548304B012142686846007A86
:10C8C000FFF7B8FD601CC4B241E030482A4B02219A
:10C8D00082686846007AFFF7ADFD601CC4B236E09E
:10C8E0002A48254B0321C2686846007AFFF7A2FD5B
:10C8F000601CC4B22BE025481F4B04210269684626
:10C90000007AFFF797FD601CC4B220E01F481A4B65
:10C91000052142696846007AFFF78CFD601CC4B2AD
:10C9200015E01A48144B062182696846007AFFF721
:10C9300081FD601CC4B20AE014480F4B0721C26994
:10C940006846007AFFF776FD601CC4B200BF00BFE6
:10C950006846007A05281DD0009801281AD11AE0EF
:10C9600071E06EE06BE0000049CD0000000900209E
:10C9700004090020000500502C1900202019002077
:10C980001019002018190020241900204C1900202B
:10C990000819002000BF072E00DA73E70020354990
:10C9A00008604CE0012600BF334A02A901A8C1DF9C
:10C9B00071003F2008418007800F009000980328F5
:10C9C0002CD16846007A052828D1012E04D0022EE9
:10C9D0000DD0032E21D115E02848274B01214268B4
:10C9E0006846007AFFF726FD601CC4B215E02348B4
:10C9F000214B022182686846007AFFF71BFD601C0C
:10CA0000C4B20AE01D481C4B0321C2686846007A84
:10CA1000FFF710FD601CC4B200BF00BF6846007A7B
:10CA2000052803D00098032800D102E0701CC6B28C
:10CA300000BF042EB8DB00200E49086000BF00BF15
:10CA400000E000BF00BF002D01D1012000E0002068
:10CA500008490968002901D0012100E000210842AD
:10CA600000D0F7E6002606480068002800D1E1E57E
:10CA7000AFE50000040900202C1900204C1900200B
:10CA80000009002001B505E00098401E0090034811
:10CA9000FFF720FB00980028F6D108BDE70300004F
:10CAA00003210522120707231B02D2188300D1504D
:10CAB0007047000001218140014AD16070470000A9
:10CAC0000005005001218140014AD16070470000FB
:10CAD0000005005001218140014A9160704700002B
:10CAE0000005005001218140014A9160704700001B
:10CAF00000050050F0B50446059D204606469640C8
:10CB00000E4330460646AE401E4330460646079F5B
:10CB1000BE40069F3E4330460646099FBE40089FE2
:10CB20003E433046F0BD000010B502460748027093
:10CB3000012008E003231B1ADC000B46E340034CF2
:10CB40002354431CD8B20428F4DB10BD081900207C
:10CB5000FEB50746002001900420344908700325E3
:10CB6000A801054614352D06002408E00320001B0B
:10CB7000C1002846C8402E490855601CC4B2042C88
:10CB8000F4DB2B492948007800F086F80090002655
:10CB900026E001960325A801019E3043054628069C
:10CBA000B100795808430546002408E00320001B23
:10CBB000C1002846C8401E490855601CC4B2042C58
:10CBC000F4DB1B491948007800F066F8009018481B
:10CBD000002101604160174801604160701CC6B2CD
:10CBE000142ED6DB6420FFF74DFF0325A801054670
:10CBF00014352806451C00240DE00320001BC1004D
:10CC00002846C8400A4908550848007800F044F80A
:10CC10000090601CC4B2042CEFDB05490348007887
:10CC200000F03AF800900098FEBD000020190020A6
:10CC3000101900201819002070B588B006461C2273
:10CC40000F4901A8FFF76CFA1720029016200390F5
:10CC5000142004901520059001A9304600F022F917
:10CC6000044600BF2546002D06D000BF05A2FF21C7
:10CC70005A312846FFF71CFB00BF08B070BD00000A
:10CC8000E8D200002E2E5C50434150696E745F6DF7
:10CC900061696E2E63000000F8B504460F460D4B27
:10CCA000224639460020009400F0F2F9054600BF04
:10CCB0002E46002E06D000BF07A2FF216A31304663
:10CCC000FFF7F6FA00BF002D01D00020F8BD0120CB
:10CCD000FCE70000181900202E2E5C5043415069DB
:10CCE0006E745F6D61696E2E63000000F0B585B0F3
:10CCF00004460420114908700126B0012043C6B241
:10CD00000F48067001460D480078FFF7C5FF05463D
:10CD1000002001900290039004900820094A00909E
:10CD2000D378917850780822FFF7E4FE0746002D6B
:10CD300002D1284605B0F0BD3846FBE72019002097
:10CD4000101900201819002000BFFEE7FFB581B0C0
:10CD5000044615461E460A9F00BF002D01D0012043
:10CD600000E0002000900098002805D100BF194A7B
:10CD70009221FFF79DFA00BF00BF00BF002E01D037
:10CD8000012000E0002000900098002805D100BF9D
:10CD9000104A9321FFF78CFA00BF00BF00BF002F9D
:10CDA00001D0012000E0002000900098002805D16B
:10CDB00000BF084A9421FFF77BFA00BF00BF2C6038
:10CDC000002C01D0029800E0002030800020388044
:10CDD00005B0F0BD08D3000070B504460D4600BF95
:10CDE000002C01D0012000E000200646002E05D1D5
:10CDF00000BF0D4AA121FFF75BFA00BF00BF00BFD3
:10CE0000002D01D0012000E000200646002E05D1B3
:10CE100000BF054AA221FFF74BFA00BF00BF002068
:10CE20002060288070BD000008D300000146012961
:10CE300004DA28204843024A801870470020FCE7A3
:10CE40006C190020FFB581B005460E46144600BFA0
:10CE5000002C01D0012000E000200746002F05D162
:10CE600000BF0F4A7121FFF723FA00BF00BF256002
:10CE700026710020A060A081E0812061A082E08274
:10CE80006083208320772062002124200155252003
:10CE900001556846017C2620015505B0F0BD000013
:10CEA00008D30000F8B506460C46002C01D10E2030
:10CEB000F8BD3046FFF7BAFF054600BF002D01D090
:10CEC000012000E000200746002F06D100BF4D4A98
:10CED000FF211331FFF7ECF900BF00BF002E0CD18A
:10CEE000E07E002801D0012000E0002003462A4611
:10CEF00004214548FFF7A6FF00E000BF00BF2069FE
:10CF0000FFF7F0FD2069FFF7CBFD2069FFF7EAFD91
:10CF10006068FFF7C5FDE068FFF7C2FD0021A0686B
:10CF20008A0005231B0707273F02DB198700DA5118
:10CF300000BF207C287760682968052212028918C2
:10CF40008860E06829688918C860A068296889181D
:10CF500008612068296889184862A07E4000617EC7
:10CF600089000843217E0843296815229201891807
:10CF7000486100212868FF300130816000BF042033
:10CF8000285627DF0746002F07D000BF1D4AFF2184
:10CF900042313846FFF78CF900BF00BF00BF217D4A
:10CFA0000420285628DF0746002F07D000BF154A67
:10CFB000FF2143313846FFF77BF900BF00BF002057
:10CFC000286204202968032212028918486000BFE1
:10CFD000285623DF0746002F07D000BF094AFF214C
:10CFE0004A313846FFF764F900BF00BF01202968C5
:10CFF00005221202891808600221242041550020D0
:10D0000056E7000008D300000040004070B5044619
:10D0100000BF002C01D0012000E000200546002DBB
:10D0200005D100BF194AC021FFF742F900BF00BF78
:10D03000A068002807D0E089A189884203DAA068A7
:10D04000E189405C00E00020216805221202891875
:10D05000C861E089401CE081E089218B884213DAB5
:10D06000A068002807D0E089A189884203DAA06877
:10D07000E189405C00E00020216805221202891845
:10D08000C861E089401CE08170BD000008D3000049
:10D09000FFB583B015460398FFF7C8FE044600BFEE
:10D0A000002C01D0012000E000200746002F06D10F
:10D0B00000BF444AFF219A31FFF7FAF800BF00BFD2
:10D0C00000200290002601902620005D00280ED04E
:10D0D00000BF01A82BDF0746002F07D000BF394A49
:10D0E000FF21A5313846FFF7E3F800BF0FE000BF8E
:10D0F0000420205624DF0746002F07D000BF314A06
:10D10000FF21AA313846FFF7D3F800BF00BF242023
:10D11000005D02282DD10C98A84201DD0C9800E09A
:10D1200028460646002E21DD01212420015500203D
:10D130006083002125200155268320460E30831E62
:10D14000821F294600900498FFF700FE2046163003
:10D15000831E821F00900C990698FFF7F7FD207F31
:10D16000FFF7B0FC2046FFF751FF04E007200290D4
:10D1700001E0112002902620005D00280FD000BFA2
:10D18000684600792CDF0746002F07D000BF0D4A04
:10D19000FF21D6313846FFF78BF800BF0FE000BF04
:10D1A0000420205623DF0746002F07D000BF054A82
:10D1B000FF21DB313846FFF77BF800BF00BF029844
:10D1C00007B0F0BD08D3000070B5044600BF002CC6
:10D1D00001D0012000E000200646002E05D100BF4E
:10D1E0002D4AD821FFF764F800BF00BF608B401CB8
:10D1F00060832520005D002807D1012125200155ED
:10D20000628B0021204600F049F8206805210902C0
:10D2100040188069C5B22069002808D0E08AA18A38
:10D22000884204DAE08A411CE18221690D54E089D8
:10D23000218B884213DAA068002807D0E089A189F1
:10D24000884203DAA068E189405C00E000202168A0
:10D25000052212028918C861E089401CE081608BB8
:10D26000218B884216DB207FFFF73CFCE6892146B4
:10D270000C31081FFFF7B0FD21461431081FFFF7DE
:10D28000ABFD02212420015532460121204600F049
:10D2900005F800BF70BD000008D30000F8B50446D3
:10D2A0000D46164600BF002C01D0012000E00020F2
:10D2B0000746002F05D100BF0A4AAF21FEF7F8FF4D
:10D2C00000BF00BF206A00280AD00648001F00687F
:10D2D0000090684605704680216A0098884700BF24
:10D2E000F8BD000008D3000000000010FFFFFFFFA2
:10D2F000FFFFFFFFFFFFFFFFFFFFFFFF0300000037
:10D300000100000002000000433A5C4B65696C5C60
:10D3100041524D5C4465766963655C4E6F72646929
:10D32000635C6E726635313432325C536F75726392
:10D33000655C7370695F6D61737465725C7370694D
:10D340005F6D61737465722E630000005CD3000032
:10D35000000900202C10000068C100002005010019
:10D360000000041107301362630065BE01202642ED
:10D370005C48A00321E42031A10640058401236319
:10D38000221016200B4358C0FE43C0447A7E200B67
:10D39000C0C0C0C8FF43ED44082005F6FF43EC08B9
:10D3A0001023C8FF412394D043EE44D243EF4420DE
:10D3B0005A706071617868027AF343C7FE41EB45A9
:10D3C0005A21DF4601512A100E4355ED45EC51F428
:10D3D000412388EA45F5063023E9451D414358EAD3
:10D3E0002199E95046EB44A902EB5943CAFE415C3E
:10D3F000A803C05AEB45EB41F245F62B32F72B025E
:10D400001A1F2B5008F34502FFFFFF470150067C0F
:10D410007D4541020CA007F07C6D45416C11E26C2A
:10D420001ED10F6129032D024F01032D024E01036E
:10D430002D025601032E025E011006026AFD4340D2
:10D44000C91405EB457AF9412405EB2199EABE861A
:10D45000F1BE1405ED45C041D01021F8FF43E94469
:10D460006A1D43AB01EA588E03EC531D501F44EC78
:10D4700053ED53E943EC58ACE68E262372F9352977
:10D4800003213522FC35100F1D431F59E943ED538D
:10D49000EC5358ACF27A5D22C9287004E744E82CBA
:10D4A000131F43EE217722CF65138E070A22CB6F1D
:10D4B00013405D3C180421CAE84A400C1D45F8435E
:10D4C000AB0CC041ED53532E6011E753C041E853FC
:10D4D000E75341EC45E9435CACD33E13E8410F12FE
:10D4E000A82A1004E84353371808445943ABEBC843
:10D4F0004365100F447A8A1BC043405D5D9015C898
:10D5000045C94F1012AA0BCA45CB45CC45CD45CED7
:10D5100045CF450002C05813EA448012060A21098B
:10D52000117232130B134E5096100408C0430A2197
:10D530000B49AC500E4E4EE9519101235AEA43E992
:10D5400051920852930852940852950852960852E4
:10D5500097301302E99221D51405027AFA417E2010
:10D5600017E7455AFB43E77521CA65D0455AFC4386
:10D57000E721CAD1455AFD08180FD245796902D76B
:10D58000FE43E7455DAD015D7D280E1F431D44C090
:10D5900043EC51ED515DAAF2D501FF0101FF0101FC
:10D5A000FF0101FF0101FF0101FF0101FF0101FF77
:10D5B0000101FF0101FF0101FF0101FF01A10100C4
:10D5C000043D02010342021F000100040024F40094
:04D5D0000000000057
:040000050000C0C176
:00000001FF
